{
  "contractName": "FleetFactoryDeterministic",
  "abi": [
    {
      "constant": true,
      "inputs": [],
      "name": "proxyFactory",
      "outputs": [
        {
          "name": "",
          "type": "address"
        }
      ],
      "payable": false,
      "stateMutability": "view",
      "type": "function"
    },
    {
      "inputs": [
        {
          "name": "_proxyFactory",
          "type": "address"
        }
      ],
      "payable": false,
      "stateMutability": "nonpayable",
      "type": "constructor"
    },
    {
      "anonymous": false,
      "inputs": [
        {
          "indexed": true,
          "name": "owner",
          "type": "address"
        },
        {
          "indexed": false,
          "name": "fleet",
          "type": "address[]"
        }
      ],
      "name": "FleetDeployed",
      "type": "event"
    },
    {
      "constant": false,
      "inputs": [
        {
          "name": "owner",
          "type": "address"
        },
        {
          "name": "size",
          "type": "uint256"
        },
        {
          "name": "template",
          "type": "address"
        },
        {
          "name": "saltNonce",
          "type": "uint256"
        }
      ],
      "name": "deployFleetWithNonce",
      "outputs": [],
      "payable": false,
      "stateMutability": "nonpayable",
      "type": "function"
    }
  ],
  "bytecode": "0x608060405234801561001057600080fd5b506040516020806104308339810180604052602081101561003057600080fd5b5051600080546001600160a01b039092166001600160a01b03199092169190911790556103ce806100626000396000f3fe608060405234801561001057600080fd5b50600436106100365760003560e01c8063c10f1a751461003b578063fb1a93cf1461005f575b600080fd5b61004361009b565b604080516001600160a01b039092168252519081900360200190f35b6100996004803603608081101561007557600080fd5b506001600160a01b03813581169160208101359160408201351690606001356100aa565b005b6000546001600160a01b031681565b6000546040805185815260208087028201019091526001600160a01b03909116906060908580156100e5578160200160208202803883390190505b506040805160018082528183019092529192506060919060208083019080388339019050509050868160008151811061011a57fe5b6001600160a01b039092166020928302919091019091015260005b86811015610319576040805160208082018890528183018490528251808303840181526060808401808652825192840192909220600160e01b631688f0b9029092526001600160a01b038b8116606486015260a48501929092526084840152600060c48401819052935190881692631688f0b99261010480830193919282900301818787803b1580156101c757600080fd5b505af11580156101db573d6000803e3d6000fd5b505050506040513d60208110156101f157600080fd5b50518451909150819085908490811061020657fe5b6001600160a01b03928316602091820292909201810191909152604051600160e01b63b63e800d0281526001602482018190526000604483018190526084830181905260a4830181905260c4830181905260e483018190526101006004840190815288516101048501528851879687169563b63e800d958b9594938493849384938493928392606483019261012401918c82019102808383895b838110156102b85781810151838201526020016102a0565b505050509050018381038252600081526020016020019950505050505050505050600060405180830381600087803b1580156102f357600080fd5b505af1158015610307573d6000803e3d6000fd5b50506001909401935061013592505050565b50866001600160a01b03167f1eb5c30bcd35b94d9582497e50a24649e0801200095081f4fd530345456cd483836040518080602001828103825283818151815260200191508051906020019060200280838360005b8381101561038657818101518382015260200161036e565b505050509050019250505060405180910390a25050505050505056fea165627a7a723058202c81bcfeb64d7609b07f0c3c2d2b5c3ee33bf9929b0399eb896bd756cb0f7aaf0029",
  "source": "pragma solidity >= 0.5.0 < 0.7.0;\n\nimport \"@gnosis.pm/safe-contracts/contracts/proxies/GnosisSafeProxyFactory.sol\";\nimport \"@gnosis.pm/safe-contracts/contracts/GnosisSafe.sol\";\n\ncontract FleetFactoryDeterministic {\n  GnosisSafeProxyFactory public proxyFactory;\n\n  event FleetDeployed(address indexed owner, address[] fleet);\n\n  constructor(GnosisSafeProxyFactory _proxyFactory) public {\n    proxyFactory = _proxyFactory;\n  }\n\n  function deployFleetWithNonce(address owner, uint256 size, address template, uint256 saltNonce) external {\n    GnosisSafeProxyFactory _proxyFactory = proxyFactory;\n    address[] memory fleet = new address[](size);\n    address[] memory ownerList = new address[](1);\n    ownerList[0] = owner;\n    for (uint i = 0; i < size; i++) {\n      address payable proxy = address(\n        _proxyFactory.createProxyWithNonce(\n          template,\n          \"\",\n          uint256(keccak256(\n            abi.encodePacked(saltNonce, i)\n          ))\n        )\n      );\n      fleet[i] = proxy;\n      GnosisSafe safe = GnosisSafe(proxy);\n      // safe is set up to have a single owner\n      safe.setup(\n        ownerList,\n        1,\n        address(0),\n        \"\",\n        address(0),\n        address(0),\n        0,\n        address(0)\n      );\n    }\n    emit FleetDeployed(owner, fleet);\n  }\n}\n",
  "sourcePath": "/Users/andremeyer/Documents/Projects/dex-liquidity-provision/contracts/FleetFactoryDeterministic.sol",
  "compiler": {
    "name": "solc",
    "version": "0.5.6+commit.b259423e.Emscripten.clang"
  },
  "schemaVersion": "3.2.2",
  "updatedAt": "2020-08-20T08:44:01.269Z",
  "networkType": "ethereum",
  "devdoc": {
    "methods": {}
  },
  "userdoc": {
    "methods": {}
  }
}