{
  "contractName": "GnosisSafe",
  "abi": [
    {
      "constant": false,
      "inputs": [
        {
          "name": "owner",
          "type": "address"
        },
        {
          "name": "_threshold",
          "type": "uint256"
        }
      ],
      "name": "addOwnerWithThreshold",
      "outputs": [],
      "payable": false,
      "stateMutability": "nonpayable",
      "type": "function"
    },
    {
      "constant": true,
      "inputs": [
        {
          "name": "owner",
          "type": "address"
        }
      ],
      "name": "isOwner",
      "outputs": [
        {
          "name": "",
          "type": "bool"
        }
      ],
      "payable": false,
      "stateMutability": "view",
      "type": "function"
    },
    {
      "constant": false,
      "inputs": [
        {
          "name": "to",
          "type": "address"
        },
        {
          "name": "value",
          "type": "uint256"
        },
        {
          "name": "data",
          "type": "bytes"
        },
        {
          "name": "operation",
          "type": "uint8"
        }
      ],
      "name": "execTransactionFromModule",
      "outputs": [
        {
          "name": "success",
          "type": "bool"
        }
      ],
      "payable": false,
      "stateMutability": "nonpayable",
      "type": "function"
    },
    {
      "constant": false,
      "inputs": [
        {
          "name": "to",
          "type": "address"
        },
        {
          "name": "value",
          "type": "uint256"
        },
        {
          "name": "data",
          "type": "bytes"
        },
        {
          "name": "operation",
          "type": "uint8"
        }
      ],
      "name": "execTransactionFromModuleReturnData",
      "outputs": [
        {
          "name": "success",
          "type": "bool"
        },
        {
          "name": "returnData",
          "type": "bytes"
        }
      ],
      "payable": false,
      "stateMutability": "nonpayable",
      "type": "function"
    },
    {
      "constant": true,
      "inputs": [
        {
          "name": "",
          "type": "bytes32"
        }
      ],
      "name": "signedMessages",
      "outputs": [
        {
          "name": "",
          "type": "uint256"
        }
      ],
      "payable": false,
      "stateMutability": "view",
      "type": "function"
    },
    {
      "constant": false,
      "inputs": [
        {
          "name": "module",
          "type": "address"
        }
      ],
      "name": "enableModule",
      "outputs": [],
      "payable": false,
      "stateMutability": "nonpayable",
      "type": "function"
    },
    {
      "constant": false,
      "inputs": [
        {
          "name": "_threshold",
          "type": "uint256"
        }
      ],
      "name": "changeThreshold",
      "outputs": [],
      "payable": false,
      "stateMutability": "nonpayable",
      "type": "function"
    },
    {
      "constant": true,
      "inputs": [
        {
          "name": "",
          "type": "address"
        },
        {
          "name": "",
          "type": "bytes32"
        }
      ],
      "name": "approvedHashes",
      "outputs": [
        {
          "name": "",
          "type": "uint256"
        }
      ],
      "payable": false,
      "stateMutability": "view",
      "type": "function"
    },
    {
      "constant": false,
      "inputs": [
        {
          "name": "_masterCopy",
          "type": "address"
        }
      ],
      "name": "changeMasterCopy",
      "outputs": [],
      "payable": false,
      "stateMutability": "nonpayable",
      "type": "function"
    },
    {
      "constant": true,
      "inputs": [],
      "name": "getOwners",
      "outputs": [
        {
          "name": "",
          "type": "address[]"
        }
      ],
      "payable": false,
      "stateMutability": "view",
      "type": "function"
    },
    {
      "constant": true,
      "inputs": [],
      "name": "NAME",
      "outputs": [
        {
          "name": "",
          "type": "string"
        }
      ],
      "payable": false,
      "stateMutability": "view",
      "type": "function"
    },
    {
      "constant": true,
      "inputs": [],
      "name": "nonce",
      "outputs": [
        {
          "name": "",
          "type": "uint256"
        }
      ],
      "payable": false,
      "stateMutability": "view",
      "type": "function"
    },
    {
      "constant": true,
      "inputs": [],
      "name": "getModules",
      "outputs": [
        {
          "name": "",
          "type": "address[]"
        }
      ],
      "payable": false,
      "stateMutability": "view",
      "type": "function"
    },
    {
      "constant": true,
      "inputs": [
        {
          "name": "start",
          "type": "address"
        },
        {
          "name": "pageSize",
          "type": "uint256"
        }
      ],
      "name": "getModulesPaginated",
      "outputs": [
        {
          "name": "array",
          "type": "address[]"
        },
        {
          "name": "next",
          "type": "address"
        }
      ],
      "payable": false,
      "stateMutability": "view",
      "type": "function"
    },
    {
      "constant": false,
      "inputs": [
        {
          "name": "prevModule",
          "type": "address"
        },
        {
          "name": "module",
          "type": "address"
        }
      ],
      "name": "disableModule",
      "outputs": [],
      "payable": false,
      "stateMutability": "nonpayable",
      "type": "function"
    },
    {
      "constant": false,
      "inputs": [
        {
          "name": "prevOwner",
          "type": "address"
        },
        {
          "name": "oldOwner",
          "type": "address"
        },
        {
          "name": "newOwner",
          "type": "address"
        }
      ],
      "name": "swapOwner",
      "outputs": [],
      "payable": false,
      "stateMutability": "nonpayable",
      "type": "function"
    },
    {
      "constant": true,
      "inputs": [],
      "name": "getThreshold",
      "outputs": [
        {
          "name": "",
          "type": "uint256"
        }
      ],
      "payable": false,
      "stateMutability": "view",
      "type": "function"
    },
    {
      "constant": false,
      "inputs": [
        {
          "name": "handler",
          "type": "address"
        }
      ],
      "name": "setFallbackHandler",
      "outputs": [],
      "payable": false,
      "stateMutability": "nonpayable",
      "type": "function"
    },
    {
      "constant": true,
      "inputs": [],
      "name": "domainSeparator",
      "outputs": [
        {
          "name": "",
          "type": "bytes32"
        }
      ],
      "payable": false,
      "stateMutability": "view",
      "type": "function"
    },
    {
      "constant": false,
      "inputs": [
        {
          "name": "prevOwner",
          "type": "address"
        },
        {
          "name": "owner",
          "type": "address"
        },
        {
          "name": "_threshold",
          "type": "uint256"
        }
      ],
      "name": "removeOwner",
      "outputs": [],
      "payable": false,
      "stateMutability": "nonpayable",
      "type": "function"
    },
    {
      "constant": true,
      "inputs": [],
      "name": "VERSION",
      "outputs": [
        {
          "name": "",
          "type": "string"
        }
      ],
      "payable": false,
      "stateMutability": "view",
      "type": "function"
    },
    {
      "inputs": [],
      "payable": false,
      "stateMutability": "nonpayable",
      "type": "constructor"
    },
    {
      "payable": true,
      "stateMutability": "payable",
      "type": "fallback"
    },
    {
      "anonymous": false,
      "inputs": [
        {
          "indexed": true,
          "name": "approvedHash",
          "type": "bytes32"
        },
        {
          "indexed": true,
          "name": "owner",
          "type": "address"
        }
      ],
      "name": "ApproveHash",
      "type": "event"
    },
    {
      "anonymous": false,
      "inputs": [
        {
          "indexed": true,
          "name": "msgHash",
          "type": "bytes32"
        }
      ],
      "name": "SignMsg",
      "type": "event"
    },
    {
      "anonymous": false,
      "inputs": [
        {
          "indexed": false,
          "name": "txHash",
          "type": "bytes32"
        },
        {
          "indexed": false,
          "name": "payment",
          "type": "uint256"
        }
      ],
      "name": "ExecutionFailure",
      "type": "event"
    },
    {
      "anonymous": false,
      "inputs": [
        {
          "indexed": false,
          "name": "txHash",
          "type": "bytes32"
        },
        {
          "indexed": false,
          "name": "payment",
          "type": "uint256"
        }
      ],
      "name": "ExecutionSuccess",
      "type": "event"
    },
    {
      "anonymous": false,
      "inputs": [
        {
          "indexed": false,
          "name": "owner",
          "type": "address"
        }
      ],
      "name": "AddedOwner",
      "type": "event"
    },
    {
      "anonymous": false,
      "inputs": [
        {
          "indexed": false,
          "name": "owner",
          "type": "address"
        }
      ],
      "name": "RemovedOwner",
      "type": "event"
    },
    {
      "anonymous": false,
      "inputs": [
        {
          "indexed": false,
          "name": "threshold",
          "type": "uint256"
        }
      ],
      "name": "ChangedThreshold",
      "type": "event"
    },
    {
      "anonymous": false,
      "inputs": [
        {
          "indexed": false,
          "name": "module",
          "type": "address"
        }
      ],
      "name": "EnabledModule",
      "type": "event"
    },
    {
      "anonymous": false,
      "inputs": [
        {
          "indexed": false,
          "name": "module",
          "type": "address"
        }
      ],
      "name": "DisabledModule",
      "type": "event"
    },
    {
      "anonymous": false,
      "inputs": [
        {
          "indexed": true,
          "name": "module",
          "type": "address"
        }
      ],
      "name": "ExecutionFromModuleSuccess",
      "type": "event"
    },
    {
      "anonymous": false,
      "inputs": [
        {
          "indexed": true,
          "name": "module",
          "type": "address"
        }
      ],
      "name": "ExecutionFromModuleFailure",
      "type": "event"
    },
    {
      "anonymous": false,
      "inputs": [
        {
          "indexed": false,
          "name": "masterCopy",
          "type": "address"
        }
      ],
      "name": "ChangedMasterCopy",
      "type": "event"
    },
    {
      "constant": false,
      "inputs": [
        {
          "name": "_owners",
          "type": "address[]"
        },
        {
          "name": "_threshold",
          "type": "uint256"
        },
        {
          "name": "to",
          "type": "address"
        },
        {
          "name": "data",
          "type": "bytes"
        },
        {
          "name": "fallbackHandler",
          "type": "address"
        },
        {
          "name": "paymentToken",
          "type": "address"
        },
        {
          "name": "payment",
          "type": "uint256"
        },
        {
          "name": "paymentReceiver",
          "type": "address"
        }
      ],
      "name": "setup",
      "outputs": [],
      "payable": false,
      "stateMutability": "nonpayable",
      "type": "function"
    },
    {
      "constant": false,
      "inputs": [
        {
          "name": "to",
          "type": "address"
        },
        {
          "name": "value",
          "type": "uint256"
        },
        {
          "name": "data",
          "type": "bytes"
        },
        {
          "name": "operation",
          "type": "uint8"
        },
        {
          "name": "safeTxGas",
          "type": "uint256"
        },
        {
          "name": "baseGas",
          "type": "uint256"
        },
        {
          "name": "gasPrice",
          "type": "uint256"
        },
        {
          "name": "gasToken",
          "type": "address"
        },
        {
          "name": "refundReceiver",
          "type": "address"
        },
        {
          "name": "signatures",
          "type": "bytes"
        }
      ],
      "name": "execTransaction",
      "outputs": [
        {
          "name": "success",
          "type": "bool"
        }
      ],
      "payable": false,
      "stateMutability": "nonpayable",
      "type": "function"
    },
    {
      "constant": false,
      "inputs": [
        {
          "name": "to",
          "type": "address"
        },
        {
          "name": "value",
          "type": "uint256"
        },
        {
          "name": "data",
          "type": "bytes"
        },
        {
          "name": "operation",
          "type": "uint8"
        }
      ],
      "name": "requiredTxGas",
      "outputs": [
        {
          "name": "",
          "type": "uint256"
        }
      ],
      "payable": false,
      "stateMutability": "nonpayable",
      "type": "function"
    },
    {
      "constant": false,
      "inputs": [
        {
          "name": "hashToApprove",
          "type": "bytes32"
        }
      ],
      "name": "approveHash",
      "outputs": [],
      "payable": false,
      "stateMutability": "nonpayable",
      "type": "function"
    },
    {
      "constant": false,
      "inputs": [
        {
          "name": "_data",
          "type": "bytes"
        }
      ],
      "name": "signMessage",
      "outputs": [],
      "payable": false,
      "stateMutability": "nonpayable",
      "type": "function"
    },
    {
      "constant": false,
      "inputs": [
        {
          "name": "_data",
          "type": "bytes"
        },
        {
          "name": "_signature",
          "type": "bytes"
        }
      ],
      "name": "isValidSignature",
      "outputs": [
        {
          "name": "",
          "type": "bytes4"
        }
      ],
      "payable": false,
      "stateMutability": "nonpayable",
      "type": "function"
    },
    {
      "constant": true,
      "inputs": [
        {
          "name": "message",
          "type": "bytes"
        }
      ],
      "name": "getMessageHash",
      "outputs": [
        {
          "name": "",
          "type": "bytes32"
        }
      ],
      "payable": false,
      "stateMutability": "view",
      "type": "function"
    },
    {
      "constant": true,
      "inputs": [
        {
          "name": "to",
          "type": "address"
        },
        {
          "name": "value",
          "type": "uint256"
        },
        {
          "name": "data",
          "type": "bytes"
        },
        {
          "name": "operation",
          "type": "uint8"
        },
        {
          "name": "safeTxGas",
          "type": "uint256"
        },
        {
          "name": "baseGas",
          "type": "uint256"
        },
        {
          "name": "gasPrice",
          "type": "uint256"
        },
        {
          "name": "gasToken",
          "type": "address"
        },
        {
          "name": "refundReceiver",
          "type": "address"
        },
        {
          "name": "_nonce",
          "type": "uint256"
        }
      ],
      "name": "encodeTransactionData",
      "outputs": [
        {
          "name": "",
          "type": "bytes"
        }
      ],
      "payable": false,
      "stateMutability": "view",
      "type": "function"
    },
    {
      "constant": true,
      "inputs": [
        {
          "name": "to",
          "type": "address"
        },
        {
          "name": "value",
          "type": "uint256"
        },
        {
          "name": "data",
          "type": "bytes"
        },
        {
          "name": "operation",
          "type": "uint8"
        },
        {
          "name": "safeTxGas",
          "type": "uint256"
        },
        {
          "name": "baseGas",
          "type": "uint256"
        },
        {
          "name": "gasPrice",
          "type": "uint256"
        },
        {
          "name": "gasToken",
          "type": "address"
        },
        {
          "name": "refundReceiver",
          "type": "address"
        },
        {
          "name": "_nonce",
          "type": "uint256"
        }
      ],
      "name": "getTransactionHash",
      "outputs": [
        {
          "name": "",
          "type": "bytes32"
        }
      ],
      "payable": false,
      "stateMutability": "view",
      "type": "function"
    }
  ],
  "bytecode": "0x608060405234801561001057600080fd5b506001600455613815806100256000396000f3fe6080604052600436106101cd5760003560e01c8063affed0e0116100f7578063e009cfde11610095578063f08a032311610064578063f08a032314610f0a578063f698da2514610f3d578063f8dc5dd914610f52578063ffa1ad7414610f95576101cd565b8063e009cfde14610d7b578063e318b52b14610db6578063e75235b814610dfb578063e86637db14610e10576101cd565b8063c4ca3a9c116100d1578063c4ca3a9c14610b1e578063cc2f845214610bb1578063d4d9bdcd14610c57578063d8d11f7814610c81576101cd565b8063affed0e0146109f4578063b2494df314610a09578063b63e800d14610a1e576101cd565b8063610b59251161016f5780637de7edef1161013e5780637de7edef1461085757806385a5affe1461088a578063a0e67e2b14610905578063a3f4df7e1461096a576101cd565b8063610b5925146106ac578063694e80c3146106df5780636a761202146107095780637d8329741461081e576101cd565b80632f54bf6e116101ab5780632f54bf6e14610422578063468721a7146104695780635229073f146105345780635ae6bd3714610682576101cd565b80630a1028c41461023e5780630d582f131461030157806320c13b0b1461033a575b60003411806101da575036155b156101e45761023c565b7f6c9a6c4a39284e37ed1cf53d337577d14212a4870fb976a4366c693b939918d580546001600160a01b0381161561023957366000803760008036600080855af13d6000803e80610234573d6000fd5b3d6000f35b50505b005b34801561024a57600080fd5b506102ef6004803603602081101561026157600080fd5b810190602081018135600160201b81111561027b57600080fd5b82018360208201111561028d57600080fd5b803590602001918460018302840111600160201b831117156102ae57600080fd5b91908080601f016020809104026020016040519081016040528093929190818152602001838380828437600092019190915250929550610faa945050505050565b60408051918252519081900360200190f35b34801561030d57600080fd5b5061023c6004803603604081101561032457600080fd5b506001600160a01b038135169060200135611038565b34801561034657600080fd5b506104056004803603604081101561035d57600080fd5b810190602081018135600160201b81111561037757600080fd5b82018360208201111561038957600080fd5b803590602001918460018302840111600160201b831117156103aa57600080fd5b919390929091602081019035600160201b8111156103c757600080fd5b8201836020820111156103d957600080fd5b803590602001918460018302840111600160201b831117156103fa57600080fd5b509092509050611202565b604080516001600160e01b03199092168252519081900360200190f35b34801561042e57600080fd5b506104556004803603602081101561044557600080fd5b50356001600160a01b031661133e565b604080519115158252519081900360200190f35b34801561047557600080fd5b506104556004803603608081101561048c57600080fd5b6001600160a01b0382351691602081013591810190606081016040820135600160201b8111156104bb57600080fd5b8201836020820111156104cd57600080fd5b803590602001918460018302840111600160201b831117156104ee57600080fd5b91908080601f0160208091040260200160405190810160405280939291908181526020018383808284376000920191909152509295505050903560ff1691506113799050565b34801561054057600080fd5b506105ff6004803603608081101561055757600080fd5b6001600160a01b0382351691602081013591810190606081016040820135600160201b81111561058657600080fd5b82018360208201111561059857600080fd5b803590602001918460018302840111600160201b831117156105b957600080fd5b91908080601f0160208091040260200160405190810160405280939291908181526020018383808284376000920191909152509295505050903560ff1691506114599050565b604051808315151515815260200180602001828103825283818151815260200191508051906020019080838360005b8381101561064657818101518382015260200161062e565b50505050905090810190601f1680156106735780820380516001836020036101000a031916815260200191505b50935050505060405180910390f35b34801561068e57600080fd5b506102ef600480360360208110156106a557600080fd5b503561148f565b3480156106b857600080fd5b5061023c600480360360208110156106cf57600080fd5b50356001600160a01b03166114a1565b3480156106eb57600080fd5b5061023c6004803603602081101561070257600080fd5b503561165c565b34801561071557600080fd5b50610455600480360361014081101561072d57600080fd5b6001600160a01b0382351691602081013591810190606081016040820135600160201b81111561075c57600080fd5b82018360208201111561076e57600080fd5b803590602001918460018302840111600160201b8311171561078f57600080fd5b9193909260ff833516926020810135926040820135926060830135926001600160a01b03608082013581169360a083013590911692909160e081019060c00135600160201b8111156107e057600080fd5b8201836020820111156107f257600080fd5b803590602001918460018302840111600160201b8311171561081357600080fd5b50909250905061175f565b34801561082a57600080fd5b506102ef6004803603604081101561084157600080fd5b506001600160a01b038135169060200135611992565b34801561086357600080fd5b5061023c6004803603602081101561087a57600080fd5b50356001600160a01b03166119af565b34801561089657600080fd5b5061023c600480360360208110156108ad57600080fd5b810190602081018135600160201b8111156108c757600080fd5b8201836020820111156108d957600080fd5b803590602001918460018302840111600160201b831117156108fa57600080fd5b509092509050611a8c565b34801561091157600080fd5b5061091a611b50565b60408051602080825283518183015283519192839290830191858101910280838360005b8381101561095657818101518382015260200161093e565b505050509050019250505060405180910390f35b34801561097657600080fd5b5061097f611c1c565b6040805160208082528351818301528351919283929083019185019080838360005b838110156109b95781810151838201526020016109a1565b50505050905090810190601f1680156109e65780820380516001836020036101000a031916815260200191505b509250505060405180910390f35b348015610a0057600080fd5b506102ef611c46565b348015610a1557600080fd5b5061091a611c4c565b348015610a2a57600080fd5b5061023c6004803603610100811015610a4257600080fd5b810190602081018135600160201b811115610a5c57600080fd5b820183602082011115610a6e57600080fd5b803590602001918460208302840111600160201b83111715610a8f57600080fd5b919390928235926001600160a01b03602082013516929190606081019060400135600160201b811115610ac157600080fd5b820183602082011115610ad357600080fd5b803590602001918460018302840111600160201b83111715610af457600080fd5b91935091506001600160a01b03813581169160208101358216916040820135916060013516611c62565b348015610b2a57600080fd5b506102ef60048036036080811015610b4157600080fd5b6001600160a01b0382351691602081013591810190606081016040820135600160201b811115610b7057600080fd5b820183602082011115610b8257600080fd5b803590602001918460018302840111600160201b83111715610ba357600080fd5b91935091503560ff16611dbf565b348015610bbd57600080fd5b50610bea60048036036040811015610bd457600080fd5b506001600160a01b038135169060200135611f01565b6040518080602001836001600160a01b03166001600160a01b03168152602001828103825284818151815260200191508051906020019060200280838360005b83811015610c42578181015183820152602001610c2a565b50505050905001935050505060405180910390f35b348015610c6357600080fd5b5061023c60048036036020811015610c7a57600080fd5b5035611fd5565b348015610c8d57600080fd5b506102ef6004803603610140811015610ca557600080fd5b6001600160a01b0382351691602081013591810190606081016040820135600160201b811115610cd457600080fd5b820183602082011115610ce657600080fd5b803590602001918460018302840111600160201b83111715610d0757600080fd5b91908080601f0160208091040260200160405190810160405280939291908181526020018383808284376000920191909152509295505060ff833516935050506020810135906040810135906060810135906001600160a01b03608082013581169160a08101359091169060c0013561208a565b348015610d8757600080fd5b5061023c60048036036040811015610d9e57600080fd5b506001600160a01b03813581169160200135166120b5565b348015610dc257600080fd5b5061023c60048036036060811015610dd957600080fd5b506001600160a01b038135811691602081013582169160409091013516612248565b348015610e0757600080fd5b506102ef6124eb565b348015610e1c57600080fd5b5061097f6004803603610140811015610e3457600080fd5b6001600160a01b0382351691602081013591810190606081016040820135600160201b811115610e6357600080fd5b820183602082011115610e7557600080fd5b803590602001918460018302840111600160201b83111715610e9657600080fd5b91908080601f0160208091040260200160405190810160405280939291908181526020018383808284376000920191909152509295505060ff833516935050506020810135906040810135906060810135906001600160a01b03608082013581169160a08101359091169060c001356124f1565b348015610f1657600080fd5b5061023c60048036036020811015610f2d57600080fd5b50356001600160a01b0316612613565b348015610f4957600080fd5b506102ef612660565b348015610f5e57600080fd5b5061023c60048036036060811015610f7557600080fd5b506001600160a01b03813581169160208101359091169060400135612666565b348015610fa157600080fd5b5061097f61284b565b8051602091820120604080517f60b3cbf8b4a223d68d641b3b6ddf9a298e7f33710cf3d3a9d1146b5a6150fbca8185015280820192909252805180830382018152606083018252805190840120600654600160f81b6019026080850152600160f81b6081850152608284015260a2808401919091528151808403909101815260c29092019052805191012090565b33301461107957604051600160e51b62461bcd02815260040180806020018281038252602c81526020018061370b602c913960400191505060405180910390fd5b6001600160a01b0382161580159061109b57506001600160a01b038216600114155b6110dd5760408051600160e51b62461bcd02815260206004820152601e602482015260008051602061354a833981519152604482015290519081900360640190fd5b6001600160a01b03828116600090815260026020526040902054161561114d5760408051600160e51b62461bcd02815260206004820152601b60248201527f4164647265737320697320616c726561647920616e206f776e65720000000000604482015290519081900360640190fd5b600260209081527fe90b7bceb6e7df5418fb78d8ee546e97c83a08bbccc01a0644d599ccd2a7c2e080546001600160a01b03858116600081815260408082208054949095166001600160a01b031994851617909455600190819052845490921681179093556003805490910190558051918252517f9465fa0c962cc76958e6373a993326400c1c94f8be2fe3a952adfa7f60b2ea26929181900390910190a180600454146111fe576111fe8161165c565b5050565b60008061124486868080601f016020809104026020016040519081016040528093929190818152602001838380828437600092019190915250610faa92505050565b9050826112b3576000818152600760205260409020546112ae5760408051600160e51b62461bcd02815260206004820152601160248201527f48617368206e6f7420617070726f766564000000000000000000000000000000604482015290519081900360640190fd5b611327565b6113278187878080601f01602080910402602001604051908101604052809392919081815260200183838082843760009201919091525050604080516020601f8b0181900481028201810190925289815292508991508890819084018382808284376000920182905250925061286f915050565b50600160e01b6320c13b0b0290505b949350505050565b60006001600160a01b03821660011480159061137357506001600160a01b038281166000908152600260205260409020541615155b92915050565b6000336001148015906113a35750336000908152600160205260409020546001600160a01b031615155b6113e157604051600160e51b62461bcd0281526004018080602001828103825260308152602001806137376030913960400191505060405180910390fd5b6113ee858585855a612ed4565b905080156114265760405133907f6895c13664aa4f67288b25d7a21d7aaa34916e355fb9b6fae0a139a9085becb890600090a2611336565b60405133907facd2c8702804128fdb0db2bb49f6d127dd0181c13fd45dbfe16de0930e2bd37590600090a2949350505050565b6000606061146986868686611379565b915060405160203d0181016040523d81523d6000602083013e8091505094509492505050565b60076020526000908152604090205481565b3330146114e257604051600160e51b62461bcd02815260040180806020018281038252602c81526020018061370b602c913960400191505060405180910390fd5b6001600160a01b0381161580159061150457506001600160a01b038116600114155b6115585760408051600160e51b62461bcd02815260206004820152601f60248201527f496e76616c6964206d6f64756c6520616464726573732070726f766964656400604482015290519081900360640190fd5b6001600160a01b0381811660009081526001602052604090205416156115c85760408051600160e51b62461bcd02815260206004820152601d60248201527f4d6f64756c652068617320616c7265616479206265656e206164646564000000604482015290519081900360640190fd5b600160208181527fcc69885fda6bcc1a4ace058b4a62bf5e179ea78fd58a1ccd71c22cc9b688792f80546001600160a01b03858116600081815260408082208054949095166001600160a01b0319948516179094559590955282541684179091558051928352517fecdf3a3effea5783a3c4c2140e677577666428d44ed9d474a0b3a4c9943f84409281900390910190a150565b33301461169d57604051600160e51b62461bcd02815260040180806020018281038252602c81526020018061370b602c913960400191505060405180910390fd5b6003548111156116e157604051600160e51b62461bcd0281526004018080602001828103825260238152602001806135da6023913960400191505060405180910390fd5b600181101561172457604051600160e51b62461bcd0281526004018080602001828103825260248152602001806136b06024913960400191505060405180910390fd5b60048190556040805182815290517f610f7ff2b304ae8903c3de74c60c6ab1f7d6226b3f52c5161905bb5ad4039c939181900360200190a150565b60008060606117bc8f8f8f8f8080601f016020809104026020016040519081016040528093929190818152602001838380828437600081840152601f19601f820116905080830192505050505050508e8e8e8e8e8e6005546124f1565b90506005600081548092919060010191905055508080519060200120915061181e828287878080601f0160208091040260200160405190810160405280939291908181526020018383808284376000920191909152506001925061286f915050565b50885a101561186157604051600160e51b62461bcd02815260040180806020018281038252602a8152602001806137c0602a913960400191505060405180910390fd5b60005a90506118d08f8f8f8f8080601f016020809104026020016040519081016040528093929190818152602001838380828437600081840152601f19601f820116905080830192505050505050508e8e60001480156118bf57508c155b6118c9578e6118cb565b5a5b612ed4565b92506118e35a829063ffffffff612f2816565b9050600088156118fd576118fa828b8b8b8b612f3d565b90505b831561194357604080518481526020810183905281517f442e715f626346e8c54381002da614f62bee8d27386535b2521ec8540898556e929181900390910190a161197f565b604080518481526020810183905281517f23428b18acfb3ea64b08dc0c1d296ea9c09702c09083ca5272e64d115b687d23929181900390910190a15b5050509c9b505050505050505050505050565b600860209081526000928352604080842090915290825290205481565b3330146119f057604051600160e51b62461bcd02815260040180806020018281038252602c81526020018061370b602c913960400191505060405180910390fd5b6001600160a01b038116611a3857604051600160e51b62461bcd0281526004018080602001828103825260248152602001806135266024913960400191505060405180910390fd5b600080546001600160a01b0383166001600160a01b0319909116811790915560408051918252517f75e41bc35ff1bf14d81d1d2f649c0084a0f974f9289c803ec9898eeec4c8d0b89181900360200190a150565b333014611acd57604051600160e51b62461bcd02815260040180806020018281038252602c81526020018061370b602c913960400191505060405180910390fd5b6000611b0e83838080601f016020809104026020016040519081016040528093929190818152602001838380828437600092019190915250610faa92505050565b600081815260076020526040808220600190555191925082917fe7f4675038f4f6034dfcbbb24c4dc08e4ebf10eb9d257d3d02c0f38d122ac6e49190a2505050565b606080600354604051908082528060200260200182016040528015611b7f578160200160208202803883390190505b506001600090815260026020527fe90b7bceb6e7df5418fb78d8ee546e97c83a08bbccc01a0644d599ccd2a7c2e054919250906001600160a01b03165b6001600160a01b038116600114611c145780838381518110611bda57fe5b6001600160a01b03928316602091820292909201810191909152918116600090815260029092526040909120546001929092019116611bbc565b509091505090565b6040518060400160405280600b8152602001600160a81b6a476e6f73697320536166650281525081565b60055481565b606080611c5b6001600a611f01565b5091505090565b60065415611cba5760408051600160e51b62461bcd02815260206004820152601d60248201527f446f6d61696e20536570617261746f7220616c72656164792073657421000000604482015290519081900360640190fd5b604080517f035aff83d86937d35b32e04f0ddc6ff469290eef2f1b692d8a815c89404d47496020808301919091523082840152825180830384018152606083018085528151918301919091206006556080918d0280840183019094528c8152611d449390928e928e92839291909101908490808284376000920191909152508c9250613069915050565b6001600160a01b03841615611d5c57611d5c846132b6565b611d9c8787878080601f0160208091040260200160405190810160405280939291908181526020018383808284376000920191909152506132da92505050565b8115611db357611db182600060018685612f3d565b505b50505050505050505050565b6000333014611e0257604051600160e51b62461bcd02815260040180806020018281038252602c81526020018061370b602c913960400191505060405180910390fd5b60005a9050611e4a878787878080601f01602080910402602001604051908101604052809392919081815260200183838082843760009201919091525089925050505a612ed4565b611e5357600080fd5b60005a820390508060405160200180828152602001915050604051602081830303815290604052604051600160e51b62461bcd0281526004018080602001828103825283818151815260200191508051906020019080838360005b83811015611ec6578181015183820152602001611eae565b50505050905090810190601f168015611ef35780820380516001836020036101000a031916815260200191505b509250505060405180910390fd5b6060600082604051908082528060200260200182016040528015611f2f578160200160208202803883390190505b506001600160a01b0380861660009081526001602052604081205492945091165b6001600160a01b03811615801590611f7257506001600160a01b038116600114155b8015611f7d57508482105b15611fc75780848381518110611f8f57fe5b6001600160a01b0392831660209182029290920181019190915291811660009081526001928390526040902054929091019116611f50565b908352919491935090915050565b336000908152600260205260409020546001600160a01b03166120425760408051600160e51b62461bcd02815260206004820152601e60248201527f4f6e6c79206f776e6572732063616e20617070726f7665206120686173680000604482015290519081900360640190fd5b336000818152600860209081526040808320858452909152808220600190555183917ff2a0eb156472d1440255b0d7c1e19cc07115d1051fe605b0dce69acfec884d9c91a350565b600061209e8b8b8b8b8b8b8b8b8b8b6124f1565b8051906020012090509a9950505050505050505050565b3330146120f657604051600160e51b62461bcd02815260040180806020018281038252602c81526020018061370b602c913960400191505060405180910390fd5b6001600160a01b0381161580159061211857506001600160a01b038116600114155b61216c5760408051600160e51b62461bcd02815260206004820152601f60248201527f496e76616c6964206d6f64756c6520616464726573732070726f766964656400604482015290519081900360640190fd5b6001600160a01b038281166000908152600160205260409020548116908216146121ca57604051600160e51b62461bcd0281526004018080602001828103825260288152602001806135b26028913960400191505060405180910390fd5b6001600160a01b038181166000818152600160209081526040808320805488871685528285208054919097166001600160a01b031991821617909655928490528254909416909155825191825291517faab4fa2b463f581b2b32cb3b7e3b704b9ce37cc209b5fb4d77e593ace4054276929181900390910190a15050565b33301461228957604051600160e51b62461bcd02815260040180806020018281038252602c81526020018061370b602c913960400191505060405180910390fd5b6001600160a01b038116158015906122ab57506001600160a01b038116600114155b6122ed5760408051600160e51b62461bcd02815260206004820152601e602482015260008051602061354a833981519152604482015290519081900360640190fd5b6001600160a01b03818116600090815260026020526040902054161561235d5760408051600160e51b62461bcd02815260206004820152601b60248201527f4164647265737320697320616c726561647920616e206f776e65720000000000604482015290519081900360640190fd5b6001600160a01b0382161580159061237f57506001600160a01b038216600114155b6123c15760408051600160e51b62461bcd02815260206004820152601e602482015260008051602061354a833981519152604482015290519081900360640190fd5b6001600160a01b0383811660009081526002602052604090205481169083161461241f57604051600160e51b62461bcd0281526004018080602001828103825260268152602001806136546026913960400191505060405180910390fd5b6001600160a01b038281166000818152600260209081526040808320805487871680865283862080549289166001600160a01b0319938416179055968a16855282852080548216909717909655928490528254909416909155825191825291517ff8d49fc529812e9a7c5c50e69c20f0dccc0db8fa95c98bc58cc9a4f1c1299eaf929181900390910190a1604080516001600160a01b038316815290517f9465fa0c962cc76958e6373a993326400c1c94f8be2fe3a952adfa7f60b2ea269181900360200190a1505050565b60045490565b606060007fbb8310d486368db6bd6f849402fdd73ad53d316b5a4b2644ad6efe0f941286d860001b8c8c8c805190602001208c8c8c8c8c8c8c604051602001808c81526020018b6001600160a01b03166001600160a01b031681526020018a815260200189815260200188600181111561256757fe5b60ff1681526020808201989098526040808201979097526060810195909552506001600160a01b039283166080850152911660a083015260c0808301919091528251808303909101815260e0820183528051930192909220600654600160f81b601902610100850152600160f81b6101018501526101028401526101228084019190915281518084039091018152610142909201905296505050505050509a9950505050505050505050565b33301461265457604051600160e51b62461bcd02815260040180806020018281038252602c81526020018061370b602c913960400191505060405180910390fd5b61265d816132b6565b50565b60065481565b3330146126a757604051600160e51b62461bcd02815260040180806020018281038252602c81526020018061370b602c913960400191505060405180910390fd5b8060016003540310156126ee57604051600160e51b62461bcd0281526004018080602001828103825260358152602001806135fd6035913960400191505060405180910390fd5b6001600160a01b0382161580159061271057506001600160a01b038216600114155b6127525760408051600160e51b62461bcd02815260206004820152601e602482015260008051602061354a833981519152604482015290519081900360640190fd5b6001600160a01b038381166000908152600260205260409020548116908316146127b057604051600160e51b62461bcd0281526004018080602001828103825260268152602001806136546026913960400191505060405180910390fd5b6001600160a01b038281166000818152600260209081526040808320805489871685528285208054919097166001600160a01b03199182161790965592849052825490941690915560038054600019019055825191825291517ff8d49fc529812e9a7c5c50e69c20f0dccc0db8fa95c98bc58cc9a4f1c1299eaf929181900390910190a18060045414612846576128468161165c565b505050565b604051806040016040528060058152602001600160d81b64312e312e310281525081565b600454806128c75760408051600160e51b62461bcd02815260206004820152601e60248201527f5468726573686f6c64206e6565647320746f20626520646566696e6564210000604482015290519081900360640190fd5b6128d881604163ffffffff6133fa16565b835110156129305760408051600160e51b62461bcd02815260206004820152601960248201527f5369676e617475726573206461746120746f6f2073686f727400000000000000604482015290519081900360640190fd5b600080808080805b86811015611db15761294a8982613428565b9195509350915060ff8416612c1157919350839161296f87604163ffffffff6133fa16565b8210156129b057604051600160e51b62461bcd0281526004018080602001828103825260378152602001806136d46037913960400191505060405180910390fd5b88516129c383602063ffffffff61344616565b1115612a0357604051600160e51b62461bcd0281526004018080602001828103825260378152602001806137676037913960400191505060405180910390fd5b6020828a018101518a519091612a2c908390612a20908790613446565b9063ffffffff61344616565b1115612a6c57604051600160e51b62461bcd02815260040180806020018281038252603681526020018061367a6036913960400191505060405180910390fd5b60606020848c010190506320c13b0b60e01b6001600160e01b031916876001600160a01b03166320c13b0b8e846040518363ffffffff1660e01b8152600401808060200180602001838103835285818151815260200191508051906020019080838360005b83811015612ae9578181015183820152602001612ad1565b50505050905090810190601f168015612b165780820380516001836020036101000a031916815260200191505b50838103825284518152845160209182019186019080838360005b83811015612b49578181015183820152602001612b31565b50505050905090810190601f168015612b765780820380516001836020036101000a031916815260200191505b5094505050505060206040518083038186803b158015612b9557600080fd5b505afa158015612ba9573d6000803e3d6000fd5b505050506040513d6020811015612bbf57600080fd5b50516001600160e01b03191614612c0a57604051600160e51b62461bcd02815260040180806020018281038252602381526020018061358f6023913960400191505060405180910390fd5b5050612e23565b8360ff1660011415612cf4579193508391336001600160a01b0384161480612c5b57506001600160a01b03851660009081526008602090815260408083208e845290915290205415155b612caf5760408051600160e51b62461bcd02815260206004820152601a60248201527f4861736820686173206e6f74206265656e20617070726f766564000000000000604482015290519081900360640190fd5b878015612cc55750336001600160a01b03861614155b15612cef576001600160a01b03851660009081526008602090815260408083208e84529091528120555b612e23565b601e8460ff161115612dbf5760018b60405160200180807f19457468657265756d205369676e6564204d6573736167653a0a333200000000815250601c018281526020019150506040516020818303038152906040528051906020012060048603858560405160008152602001604052604051808581526020018460ff1660ff1681526020018381526020018281526020019450505050506020604051602081039080840390855afa158015612dae573d6000803e3d6000fd5b505050602060405103519450612e23565b604080516000815260208082018084528e905260ff8716828401526060820186905260808201859052915160019260a0808401939192601f1981019281900390910190855afa158015612e16573d6000803e3d6000fd5b5050506020604051035194505b856001600160a01b0316856001600160a01b0316118015612e5d57506001600160a01b038581166000908152600260205260409020541615155b8015612e7357506001600160a01b038516600114155b612ec75760408051600160e51b62461bcd02815260206004820152601660248201527f496e76616c6964206f776e65722070726f766964656400000000000000000000604482015290519081900360640190fd5b9394508493600101612938565b600080836001811115612ee357fe5b1415612efc57612ef586868685613458565b9050612f1f565b6001836001811115612f0a57fe5b1415612f1b57612ef5868584613470565b5060005b95945050505050565b600082821115612f3757600080fd5b50900390565b6000806001600160a01b03831615612f555782612f57565b325b90506001600160a01b03841661300057612f953a8610612f77573a612f79565b855b612f89898963ffffffff61344616565b9063ffffffff6133fa16565b6040519092506001600160a01b0382169083156108fc029084906000818181858888f19350505050612ffb57604051600160e51b62461bcd02815260040180806020018281038252602281526020018061379e6022913960400191505060405180910390fd5b61305f565b61301485612f89898963ffffffff61344616565b9150613021848284613486565b61305f57604051600160e51b62461bcd0281526004018080602001828103825260228152602001806136326022913960400191505060405180910390fd5b5095945050505050565b600454156130c15760408051600160e51b62461bcd02815260206004820152601e60248201527f4f776e657273206861766520616c7265616479206265656e2073657475700000604482015290519081900360640190fd5b815181111561310457604051600160e51b62461bcd0281526004018080602001828103825260238152602001806135da6023913960400191505060405180910390fd5b600181101561314757604051600160e51b62461bcd0281526004018080602001828103825260248152602001806136b06024913960400191505060405180910390fd5b600160005b835181101561328357600084828151811061316357fe5b6020026020010151905060006001600160a01b0316816001600160a01b03161415801561319a57506001600160a01b038116600114155b6131dc5760408051600160e51b62461bcd02815260206004820152601e602482015260008051602061354a833981519152604482015290519081900360640190fd5b6001600160a01b03818116600090815260026020526040902054161561324c5760408051600160e51b62461bcd02815260206004820181905260248201527f4475706c6963617465206f776e657220616464726573732070726f7669646564604482015290519081900360640190fd5b6001600160a01b03928316600090815260026020526040902080546001600160a01b0319169382169390931790925560010161314c565b506001600160a01b0316600090815260026020526040902080546001600160a01b03191660011790559051600355600455565b7f6c9a6c4a39284e37ed1cf53d337577d14212a4870fb976a4366c693b939918d555565b600160008190526020527fcc69885fda6bcc1a4ace058b4a62bf5e179ea78fd58a1ccd71c22cc9b688792f546001600160a01b03161561334e57604051600160e51b62461bcd02815260040180806020018281038252602581526020018061356a6025913960400191505060405180910390fd5b6001600081905260208190527fcc69885fda6bcc1a4ace058b4a62bf5e179ea78fd58a1ccd71c22cc9b688792f80546001600160a01b03191690911790556001600160a01b038216156111fe576133a682825a613470565b6111fe5760408051600160e51b62461bcd02815260206004820152601f60248201527f436f756c64206e6f742066696e69736820696e697469616c697a6174696f6e00604482015290519081900360640190fd5b60008261340957506000611373565b8282028284828161341657fe5b041461342157600080fd5b9392505050565b60419081029190910160208101516040820151919092015160ff1692565b60008282018381101561342157600080fd5b6000806000845160208601878987f195945050505050565b60008060008451602086018786f4949350505050565b604080516001600160a01b038416602482015260448082018490528251808303909101815260649091019091526020810180516001600160e01b0316600160e01b63a9059cbb021781528151600092918391829182896127105a03f16040513d81016040523d6000823e3d80156135085760208114613510576000945061351a565b82945061351a565b8151158315171594505b50505050939250505056fe496e76616c6964206d617374657220636f707920616464726573732070726f7669646564496e76616c6964206f776e657220616464726573732070726f766964656400004d6f64756c6573206861766520616c7265616479206265656e20696e697469616c697a6564496e76616c696420636f6e7472616374207369676e61747572652070726f7669646564496e76616c696420707265764d6f64756c652c206d6f64756c6520706169722070726f76696465645468726573686f6c642063616e6e6f7420657863656564206f776e657220636f756e744e6577206f776e657220636f756e74206e6565647320746f206265206c6172676572207468616e206e6577207468726573686f6c64436f756c64206e6f74207061792067617320636f737473207769746820746f6b656e496e76616c696420707265764f776e65722c206f776e657220706169722070726f7669646564496e76616c696420636f6e7472616374207369676e6174757265206c6f636174696f6e3a2064617461206e6f7420636f6d706c6574655468726573686f6c64206e6565647320746f2062652067726561746572207468616e2030496e76616c696420636f6e7472616374207369676e6174757265206c6f636174696f6e3a20696e736964652073746174696320706172744d6574686f642063616e206f6e6c792062652063616c6c65642066726f6d207468697320636f6e74726163744d6574686f642063616e206f6e6c792062652063616c6c65642066726f6d20616e20656e61626c6564206d6f64756c65496e76616c696420636f6e7472616374207369676e6174757265206c6f636174696f6e3a206c656e677468206e6f742070726573656e74436f756c64206e6f74207061792067617320636f73747320776974682065746865724e6f7420656e6f7567682067617320746f20657865637574652073616665207472616e73616374696f6ea165627a7a7230582049e0b124db84696d1120456d9036cd7f1c6310af55a1fc94d7b36696b08653e70029",
  "source": "pragma solidity >=0.5.0 <0.7.0;\nimport \"./base/ModuleManager.sol\";\nimport \"./base/OwnerManager.sol\";\nimport \"./base/FallbackManager.sol\";\nimport \"./common/MasterCopy.sol\";\nimport \"./common/SignatureDecoder.sol\";\nimport \"./common/SecuredTokenTransfer.sol\";\nimport \"./interfaces/ISignatureValidator.sol\";\nimport \"./external/GnosisSafeMath.sol\";\n\n/// @title Gnosis Safe - A multisignature wallet with support for confirmations using signed messages based on ERC191.\n/// @author Stefan George - <stefan@gnosis.io>\n/// @author Richard Meissner - <richard@gnosis.io>\n/// @author Ricardo Guilherme Schmidt - (Status Research & Development GmbH) - Gas Token Payment\ncontract GnosisSafe\n    is MasterCopy, ModuleManager, OwnerManager, SignatureDecoder, SecuredTokenTransfer, ISignatureValidatorConstants, FallbackManager {\n\n    using GnosisSafeMath for uint256;\n\n    string public constant NAME = \"Gnosis Safe\";\n    string public constant VERSION = \"1.1.1\";\n\n    //keccak256(\n    //    \"EIP712Domain(address verifyingContract)\"\n    //);\n    bytes32 private constant DOMAIN_SEPARATOR_TYPEHASH = 0x035aff83d86937d35b32e04f0ddc6ff469290eef2f1b692d8a815c89404d4749;\n\n    //keccak256(\n    //    \"SafeTx(address to,uint256 value,bytes data,uint8 operation,uint256 safeTxGas,uint256 baseGas,uint256 gasPrice,address gasToken,address refundReceiver,uint256 nonce)\"\n    //);\n    bytes32 private constant SAFE_TX_TYPEHASH = 0xbb8310d486368db6bd6f849402fdd73ad53d316b5a4b2644ad6efe0f941286d8;\n\n    //keccak256(\n    //    \"SafeMessage(bytes message)\"\n    //);\n    bytes32 private constant SAFE_MSG_TYPEHASH = 0x60b3cbf8b4a223d68d641b3b6ddf9a298e7f33710cf3d3a9d1146b5a6150fbca;\n\n    event ApproveHash(\n        bytes32 indexed approvedHash,\n        address indexed owner\n    );\n    event SignMsg(\n        bytes32 indexed msgHash\n    );\n    event ExecutionFailure(\n        bytes32 txHash, uint256 payment\n    );\n    event ExecutionSuccess(\n        bytes32 txHash, uint256 payment\n    );\n\n    uint256 public nonce;\n    bytes32 public domainSeparator;\n    // Mapping to keep track of all message hashes that have been approve by ALL REQUIRED owners\n    mapping(bytes32 => uint256) public signedMessages;\n    // Mapping to keep track of all hashes (message or transaction) that have been approve by ANY owners\n    mapping(address => mapping(bytes32 => uint256)) public approvedHashes;\n\n    // This constructor ensures that this contract can only be used as a master copy for Proxy contracts\n    constructor() public {\n        // By setting the threshold it is not possible to call setup anymore,\n        // so we create a Safe with 0 owners and threshold 1.\n        // This is an unusable Safe, perfect for the mastercopy\n        threshold = 1;\n    }\n\n    /// @dev Setup function sets initial storage of contract.\n    /// @param _owners List of Safe owners.\n    /// @param _threshold Number of required confirmations for a Safe transaction.\n    /// @param to Contract address for optional delegate call.\n    /// @param data Data payload for optional delegate call.\n    /// @param fallbackHandler Handler for fallback calls to this contract\n    /// @param paymentToken Token that should be used for the payment (0 is ETH)\n    /// @param payment Value that should be paid\n    /// @param paymentReceiver Adddress that should receive the payment (or 0 if tx.origin)\n    function setup(\n        address[] calldata _owners,\n        uint256 _threshold,\n        address to,\n        bytes calldata data,\n        address fallbackHandler,\n        address paymentToken,\n        uint256 payment,\n        address payable paymentReceiver\n    )\n        external\n    {\n        require(domainSeparator == 0, \"Domain Separator already set!\");\n        domainSeparator = keccak256(abi.encode(DOMAIN_SEPARATOR_TYPEHASH, this));\n        setupOwners(_owners, _threshold);\n        if (fallbackHandler != address(0)) internalSetFallbackHandler(fallbackHandler);\n        // As setupOwners can only be called if the contract has not been initialized we don't need a check for setupModules\n        setupModules(to, data);\n\n        if (payment > 0) {\n            // To avoid running into issues with EIP-170 we reuse the handlePayment function (to avoid adjusting code of that has been verified we do not adjust the method itself)\n            // baseGas = 0, gasPrice = 1 and gas = payment => amount = (payment + 0) * 1 = payment\n            handlePayment(payment, 0, 1, paymentToken, paymentReceiver);\n        }\n    }\n\n    /// @dev Allows to execute a Safe transaction confirmed by required number of owners and then pays the account that submitted the transaction.\n    ///      Note: The fees are always transfered, even if the user transaction fails.\n    /// @param to Destination address of Safe transaction.\n    /// @param value Ether value of Safe transaction.\n    /// @param data Data payload of Safe transaction.\n    /// @param operation Operation type of Safe transaction.\n    /// @param safeTxGas Gas that should be used for the Safe transaction.\n    /// @param baseGas Gas costs for that are indipendent of the transaction execution(e.g. base transaction fee, signature check, payment of the refund)\n    /// @param gasPrice Gas price that should be used for the payment calculation.\n    /// @param gasToken Token address (or 0 if ETH) that is used for the payment.\n    /// @param refundReceiver Address of receiver of gas payment (or 0 if tx.origin).\n    /// @param signatures Packed signature data ({bytes32 r}{bytes32 s}{uint8 v})\n    function execTransaction(\n        address to,\n        uint256 value,\n        bytes calldata data,\n        Enum.Operation operation,\n        uint256 safeTxGas,\n        uint256 baseGas,\n        uint256 gasPrice,\n        address gasToken,\n        address payable refundReceiver,\n        bytes calldata signatures\n    )\n        external\n        returns (bool success)\n    {\n        bytes32 txHash;\n        // Use scope here to limit variable lifetime and prevent `stack too deep` errors\n        {\n            bytes memory txHashData = encodeTransactionData(\n                to, value, data, operation, // Transaction info\n                safeTxGas, baseGas, gasPrice, gasToken, refundReceiver, // Payment info\n                nonce\n            );\n            // Increase nonce and execute transaction.\n            nonce++;\n            txHash = keccak256(txHashData);\n            checkSignatures(txHash, txHashData, signatures, true);\n        }\n        require(gasleft() >= safeTxGas, \"Not enough gas to execute safe transaction\");\n        // Use scope here to limit variable lifetime and prevent `stack too deep` errors\n        {\n            uint256 gasUsed = gasleft();\n            // If no safeTxGas has been set and the gasPrice is 0 we assume that all available gas can be used\n            success = execute(to, value, data, operation, safeTxGas == 0 && gasPrice == 0 ? gasleft() : safeTxGas);\n            gasUsed = gasUsed.sub(gasleft());\n            // We transfer the calculated tx costs to the tx.origin to avoid sending it to intermediate contracts that have made calls\n            uint256 payment = 0;\n            if (gasPrice > 0) {\n                payment = handlePayment(gasUsed, baseGas, gasPrice, gasToken, refundReceiver);\n            }\n            if (success) emit ExecutionSuccess(txHash, payment);\n            else emit ExecutionFailure(txHash, payment);\n        }\n    }\n\n    function handlePayment(\n        uint256 gasUsed,\n        uint256 baseGas,\n        uint256 gasPrice,\n        address gasToken,\n        address payable refundReceiver\n    )\n        private\n        returns (uint256 payment)\n    {\n        // solium-disable-next-line security/no-tx-origin\n        address payable receiver = refundReceiver == address(0) ? tx.origin : refundReceiver;\n        if (gasToken == address(0)) {\n            // For ETH we will only adjust the gas price to not be higher than the actual used gas price\n            payment = gasUsed.add(baseGas).mul(gasPrice < tx.gasprice ? gasPrice : tx.gasprice);\n            // solium-disable-next-line security/no-send\n            require(receiver.send(payment), \"Could not pay gas costs with ether\");\n        } else {\n            payment = gasUsed.add(baseGas).mul(gasPrice);\n            require(transferToken(gasToken, receiver, payment), \"Could not pay gas costs with token\");\n        }\n    }\n\n    /**\n    * @dev Checks whether the signature provided is valid for the provided data, hash. Will revert otherwise.\n    * @param dataHash Hash of the data (could be either a message hash or transaction hash)\n    * @param data That should be signed (this is passed to an external validator contract)\n    * @param signatures Signature data that should be verified. Can be ECDSA signature, contract signature (EIP-1271) or approved hash.\n    * @param consumeHash Indicates that in case of an approved hash the storage can be freed to save gas\n    */\n    function checkSignatures(bytes32 dataHash, bytes memory data, bytes memory signatures, bool consumeHash)\n        internal\n    {\n        // Load threshold to avoid multiple storage loads\n        uint256 _threshold = threshold;\n        // Check that a threshold is set\n        require(_threshold > 0, \"Threshold needs to be defined!\");\n        // Check that the provided signature data is not too short\n        require(signatures.length >= _threshold.mul(65), \"Signatures data too short\");\n        // There cannot be an owner with address 0.\n        address lastOwner = address(0);\n        address currentOwner;\n        uint8 v;\n        bytes32 r;\n        bytes32 s;\n        uint256 i;\n        for (i = 0; i < _threshold; i++) {\n            (v, r, s) = signatureSplit(signatures, i);\n            // If v is 0 then it is a contract signature\n            if (v == 0) {\n                // When handling contract signatures the address of the contract is encoded into r\n                currentOwner = address(uint256(r));\n\n                // Check that signature data pointer (s) is not pointing inside the static part of the signatures bytes\n                // This check is not completely accurate, since it is possible that more signatures than the threshold are send.\n                // Here we only check that the pointer is not pointing inside the part that is being processed\n                require(uint256(s) >= _threshold.mul(65), \"Invalid contract signature location: inside static part\");\n\n                // Check that signature data pointer (s) is in bounds (points to the length of data -> 32 bytes)\n                require(uint256(s).add(32) <= signatures.length, \"Invalid contract signature location: length not present\");\n\n                // Check if the contract signature is in bounds: start of data is s + 32 and end is start + signature length\n                uint256 contractSignatureLen;\n                // solium-disable-next-line security/no-inline-assembly\n                assembly {\n                    contractSignatureLen := mload(add(add(signatures, s), 0x20))\n                }\n                require(uint256(s).add(32).add(contractSignatureLen) <= signatures.length, \"Invalid contract signature location: data not complete\");\n\n                // Check signature\n                bytes memory contractSignature;\n                // solium-disable-next-line security/no-inline-assembly\n                assembly {\n                    // The signature data for contract signatures is appended to the concatenated signatures and the offset is stored in s\n                    contractSignature := add(add(signatures, s), 0x20)\n                }\n                require(ISignatureValidator(currentOwner).isValidSignature(data, contractSignature) == EIP1271_MAGIC_VALUE, \"Invalid contract signature provided\");\n            // If v is 1 then it is an approved hash\n            } else if (v == 1) {\n                // When handling approved hashes the address of the approver is encoded into r\n                currentOwner = address(uint256(r));\n                // Hashes are automatically approved by the sender of the message or when they have been pre-approved via a separate transaction\n                require(msg.sender == currentOwner || approvedHashes[currentOwner][dataHash] != 0, \"Hash has not been approved\");\n                // Hash has been marked for consumption. If this hash was pre-approved free storage\n                if (consumeHash && msg.sender != currentOwner) {\n                    approvedHashes[currentOwner][dataHash] = 0;\n                }\n            } else if (v > 30) {\n                // To support eth_sign and similar we adjust v and hash the messageHash with the Ethereum message prefix before applying ecrecover\n                currentOwner = ecrecover(keccak256(abi.encodePacked(\"\\x19Ethereum Signed Message:\\n32\", dataHash)), v - 4, r, s);\n            } else {\n                // Use ecrecover with the messageHash for EOA signatures\n                currentOwner = ecrecover(dataHash, v, r, s);\n            }\n            require (\n                currentOwner > lastOwner && owners[currentOwner] != address(0) && currentOwner != SENTINEL_OWNERS,\n                \"Invalid owner provided\"\n            );\n            lastOwner = currentOwner;\n        }\n    }\n\n    /// @dev Allows to estimate a Safe transaction.\n    ///      This method is only meant for estimation purpose, therefore two different protection mechanism against execution in a transaction have been made:\n    ///      1.) The method can only be called from the safe itself\n    ///      2.) The response is returned with a revert\n    ///      When estimating set `from` to the address of the safe.\n    ///      Since the `estimateGas` function includes refunds, call this method to get an estimated of the costs that are deducted from the safe with `execTransaction`\n    /// @param to Destination address of Safe transaction.\n    /// @param value Ether value of Safe transaction.\n    /// @param data Data payload of Safe transaction.\n    /// @param operation Operation type of Safe transaction.\n    /// @return Estimate without refunds and overhead fees (base transaction and payload data gas costs).\n    function requiredTxGas(address to, uint256 value, bytes calldata data, Enum.Operation operation)\n        external\n        authorized\n        returns (uint256)\n    {\n        uint256 startGas = gasleft();\n        // We don't provide an error message here, as we use it to return the estimate\n        // solium-disable-next-line error-reason\n        require(execute(to, value, data, operation, gasleft()));\n        uint256 requiredGas = startGas - gasleft();\n        // Convert response to string and return via error message\n        revert(string(abi.encodePacked(requiredGas)));\n    }\n\n    /**\n    * @dev Marks a hash as approved. This can be used to validate a hash that is used by a signature.\n    * @param hashToApprove The hash that should be marked as approved for signatures that are verified by this contract.\n    */\n    function approveHash(bytes32 hashToApprove)\n        external\n    {\n        require(owners[msg.sender] != address(0), \"Only owners can approve a hash\");\n        approvedHashes[msg.sender][hashToApprove] = 1;\n        emit ApproveHash(hashToApprove, msg.sender);\n    }\n\n    /**\n    * @dev Marks a message as signed\n    * @param _data Arbitrary length data that should be marked as signed on the behalf of address(this)\n    */\n    function signMessage(bytes calldata _data)\n        external\n        authorized\n    {\n        bytes32 msgHash = getMessageHash(_data);\n        signedMessages[msgHash] = 1;\n        emit SignMsg(msgHash);\n    }\n\n    /**\n    * Implementation of ISignatureValidator (see `interfaces/ISignatureValidator.sol`)\n    * @dev Should return whether the signature provided is valid for the provided data.\n    *       The save does not implement the interface since `checkSignatures` is not a view method.\n    *       The method will not perform any state changes (see parameters of `checkSignatures`)\n    * @param _data Arbitrary length data signed on the behalf of address(this)\n    * @param _signature Signature byte array associated with _data\n    * @return a bool upon valid or invalid signature with corresponding _data\n    */\n    function isValidSignature(bytes calldata _data, bytes calldata _signature)\n        external\n        returns (bytes4)\n    {\n        bytes32 messageHash = getMessageHash(_data);\n        if (_signature.length == 0) {\n            require(signedMessages[messageHash] != 0, \"Hash not approved\");\n        } else {\n            // consumeHash needs to be false, as the state should not be changed\n            checkSignatures(messageHash, _data, _signature, false);\n        }\n        return EIP1271_MAGIC_VALUE;\n    }\n\n    /// @dev Returns hash of a message that can be signed by owners.\n    /// @param message Message that should be hashed\n    /// @return Message hash.\n    function getMessageHash(\n        bytes memory message\n    )\n        public\n        view\n        returns (bytes32)\n    {\n        bytes32 safeMessageHash = keccak256(\n            abi.encode(SAFE_MSG_TYPEHASH, keccak256(message))\n        );\n        return keccak256(\n            abi.encodePacked(byte(0x19), byte(0x01), domainSeparator, safeMessageHash)\n        );\n    }\n\n    /// @dev Returns the bytes that are hashed to be signed by owners.\n    /// @param to Destination address.\n    /// @param value Ether value.\n    /// @param data Data payload.\n    /// @param operation Operation type.\n    /// @param safeTxGas Fas that should be used for the safe transaction.\n    /// @param baseGas Gas costs for data used to trigger the safe transaction.\n    /// @param gasPrice Maximum gas price that should be used for this transaction.\n    /// @param gasToken Token address (or 0 if ETH) that is used for the payment.\n    /// @param refundReceiver Address of receiver of gas payment (or 0 if tx.origin).\n    /// @param _nonce Transaction nonce.\n    /// @return Transaction hash bytes.\n    function encodeTransactionData(\n        address to,\n        uint256 value,\n        bytes memory data,\n        Enum.Operation operation,\n        uint256 safeTxGas,\n        uint256 baseGas,\n        uint256 gasPrice,\n        address gasToken,\n        address refundReceiver,\n        uint256 _nonce\n    )\n        public\n        view\n        returns (bytes memory)\n    {\n        bytes32 safeTxHash = keccak256(\n            abi.encode(SAFE_TX_TYPEHASH, to, value, keccak256(data), operation, safeTxGas, baseGas, gasPrice, gasToken, refundReceiver, _nonce)\n        );\n        return abi.encodePacked(byte(0x19), byte(0x01), domainSeparator, safeTxHash);\n    }\n\n    /// @dev Returns hash to be signed by owners.\n    /// @param to Destination address.\n    /// @param value Ether value.\n    /// @param data Data payload.\n    /// @param operation Operation type.\n    /// @param safeTxGas Fas that should be used for the safe transaction.\n    /// @param baseGas Gas costs for data used to trigger the safe transaction.\n    /// @param gasPrice Maximum gas price that should be used for this transaction.\n    /// @param gasToken Token address (or 0 if ETH) that is used for the payment.\n    /// @param refundReceiver Address of receiver of gas payment (or 0 if tx.origin).\n    /// @param _nonce Transaction nonce.\n    /// @return Transaction hash.\n    function getTransactionHash(\n        address to,\n        uint256 value,\n        bytes memory data,\n        Enum.Operation operation,\n        uint256 safeTxGas,\n        uint256 baseGas,\n        uint256 gasPrice,\n        address gasToken,\n        address refundReceiver,\n        uint256 _nonce\n    )\n        public\n        view\n        returns (bytes32)\n    {\n        return keccak256(encodeTransactionData(to, value, data, operation, safeTxGas, baseGas, gasPrice, gasToken, refundReceiver, _nonce));\n    }\n}\n",
  "sourcePath": "@gnosis.pm/safe-contracts/contracts/GnosisSafe.sol",
  "compiler": {
    "name": "solc",
    "version": "0.5.6+commit.b259423e.Emscripten.clang"
  },
  "schemaVersion": "3.2.2",
  "updatedAt": "2020-07-21T13:05:46.185Z",
  "devdoc": {
    "author": "Stefan George - <stefan@gnosis.io>Richard Meissner - <richard@gnosis.io>Ricardo Guilherme Schmidt - (Status Research & Development GmbH) - Gas Token Payment",
    "methods": {
      "addOwnerWithThreshold(address,uint256)": {
        "details": "Allows to add a new owner to the Safe and update the threshold at the same time.      This can only be done via a Safe transaction.",
        "params": {
          "_threshold": "New threshold.",
          "owner": "New owner address."
        }
      },
      "approveHash(bytes32)": {
        "details": "Marks a hash as approved. This can be used to validate a hash that is used by a signature.",
        "params": {
          "hashToApprove": "The hash that should be marked as approved for signatures that are verified by this contract."
        }
      },
      "changeMasterCopy(address)": {
        "details": "Allows to upgrade the contract. This can only be done via a Safe transaction.",
        "params": {
          "_masterCopy": "New contract address."
        }
      },
      "changeThreshold(uint256)": {
        "details": "Allows to update the number of required confirmations by Safe owners.      This can only be done via a Safe transaction.",
        "params": {
          "_threshold": "New threshold."
        }
      },
      "disableModule(address,address)": {
        "details": "Allows to remove a module from the whitelist.      This can only be done via a Safe transaction.",
        "params": {
          "module": "Module to be removed.",
          "prevModule": "Module that pointed to the module to be removed in the linked list"
        }
      },
      "enableModule(address)": {
        "details": "Allows to add a module to the whitelist.      This can only be done via a Safe transaction.",
        "params": {
          "module": "Module to be whitelisted."
        }
      },
      "encodeTransactionData(address,uint256,bytes,uint8,uint256,uint256,uint256,address,address,uint256)": {
        "details": "Returns the bytes that are hashed to be signed by owners.",
        "params": {
          "_nonce": "Transaction nonce.",
          "baseGas": "Gas costs for data used to trigger the safe transaction.",
          "data": "Data payload.",
          "gasPrice": "Maximum gas price that should be used for this transaction.",
          "gasToken": "Token address (or 0 if ETH) that is used for the payment.",
          "operation": "Operation type.",
          "refundReceiver": "Address of receiver of gas payment (or 0 if tx.origin).",
          "safeTxGas": "Fas that should be used for the safe transaction.",
          "to": "Destination address.",
          "value": "Ether value."
        },
        "return": "Transaction hash bytes."
      },
      "execTransaction(address,uint256,bytes,uint8,uint256,uint256,uint256,address,address,bytes)": {
        "details": "Allows to execute a Safe transaction confirmed by required number of owners and then pays the account that submitted the transaction.      Note: The fees are always transfered, even if the user transaction fails.",
        "params": {
          "baseGas": "Gas costs for that are indipendent of the transaction execution(e.g. base transaction fee, signature check, payment of the refund)",
          "data": "Data payload of Safe transaction.",
          "gasPrice": "Gas price that should be used for the payment calculation.",
          "gasToken": "Token address (or 0 if ETH) that is used for the payment.",
          "operation": "Operation type of Safe transaction.",
          "refundReceiver": "Address of receiver of gas payment (or 0 if tx.origin).",
          "safeTxGas": "Gas that should be used for the Safe transaction.",
          "signatures": "Packed signature data ({bytes32 r}{bytes32 s}{uint8 v})",
          "to": "Destination address of Safe transaction.",
          "value": "Ether value of Safe transaction."
        }
      },
      "execTransactionFromModule(address,uint256,bytes,uint8)": {
        "details": "Allows a Module to execute a Safe transaction without any further confirmations.",
        "params": {
          "data": "Data payload of module transaction.",
          "operation": "Operation type of module transaction.",
          "to": "Destination address of module transaction.",
          "value": "Ether value of module transaction."
        }
      },
      "execTransactionFromModuleReturnData(address,uint256,bytes,uint8)": {
        "details": "Allows a Module to execute a Safe transaction without any further confirmations and return data",
        "params": {
          "data": "Data payload of module transaction.",
          "operation": "Operation type of module transaction.",
          "to": "Destination address of module transaction.",
          "value": "Ether value of module transaction."
        }
      },
      "getMessageHash(bytes)": {
        "details": "Returns hash of a message that can be signed by owners.",
        "params": {
          "message": "Message that should be hashed"
        },
        "return": "Message hash."
      },
      "getModules()": {
        "details": "Returns array of first 10 modules.",
        "return": "Array of modules."
      },
      "getModulesPaginated(address,uint256)": {
        "details": "Returns array of modules.",
        "params": {
          "pageSize": "Maximum number of modules that should be returned.",
          "start": "Start of the page."
        },
        "return": "Array of modules."
      },
      "getOwners()": {
        "details": "Returns array of owners.",
        "return": "Array of Safe owners."
      },
      "getTransactionHash(address,uint256,bytes,uint8,uint256,uint256,uint256,address,address,uint256)": {
        "details": "Returns hash to be signed by owners.",
        "params": {
          "_nonce": "Transaction nonce.",
          "baseGas": "Gas costs for data used to trigger the safe transaction.",
          "data": "Data payload.",
          "gasPrice": "Maximum gas price that should be used for this transaction.",
          "gasToken": "Token address (or 0 if ETH) that is used for the payment.",
          "operation": "Operation type.",
          "refundReceiver": "Address of receiver of gas payment (or 0 if tx.origin).",
          "safeTxGas": "Fas that should be used for the safe transaction.",
          "to": "Destination address.",
          "value": "Ether value."
        },
        "return": "Transaction hash."
      },
      "isValidSignature(bytes,bytes)": {
        "details": "Should return whether the signature provided is valid for the provided data.      The save does not implement the interface since `checkSignatures` is not a view method.      The method will not perform any state changes (see parameters of `checkSignatures`)",
        "params": {
          "_data": "Arbitrary length data signed on the behalf of address(this)",
          "_signature": "Signature byte array associated with _data"
        },
        "return": "a bool upon valid or invalid signature with corresponding _data"
      },
      "removeOwner(address,address,uint256)": {
        "details": "Allows to remove an owner from the Safe and update the threshold at the same time.      This can only be done via a Safe transaction.",
        "params": {
          "_threshold": "New threshold.",
          "owner": "Owner address to be removed.",
          "prevOwner": "Owner that pointed to the owner to be removed in the linked list"
        }
      },
      "requiredTxGas(address,uint256,bytes,uint8)": {
        "details": "Allows to estimate a Safe transaction.      This method is only meant for estimation purpose, therefore two different protection mechanism against execution in a transaction have been made:      1.) The method can only be called from the safe itself      2.) The response is returned with a revert      When estimating set `from` to the address of the safe.      Since the `estimateGas` function includes refunds, call this method to get an estimated of the costs that are deducted from the safe with `execTransaction`",
        "params": {
          "data": "Data payload of Safe transaction.",
          "operation": "Operation type of Safe transaction.",
          "to": "Destination address of Safe transaction.",
          "value": "Ether value of Safe transaction."
        },
        "return": "Estimate without refunds and overhead fees (base transaction and payload data gas costs)."
      },
      "setFallbackHandler(address)": {
        "details": "Allows to add a contract to handle fallback calls.      Only fallback calls without value and with data will be forwarded.      This can only be done via a Safe transaction.",
        "params": {
          "handler": "contract to handle fallbacks calls."
        }
      },
      "setup(address[],uint256,address,bytes,address,address,uint256,address)": {
        "details": "Setup function sets initial storage of contract.",
        "params": {
          "_owners": "List of Safe owners.",
          "_threshold": "Number of required confirmations for a Safe transaction.",
          "data": "Data payload for optional delegate call.",
          "fallbackHandler": "Handler for fallback calls to this contract",
          "payment": "Value that should be paid",
          "paymentReceiver": "Adddress that should receive the payment (or 0 if tx.origin)",
          "paymentToken": "Token that should be used for the payment (0 is ETH)",
          "to": "Contract address for optional delegate call."
        }
      },
      "signMessage(bytes)": {
        "details": "Marks a message as signed",
        "params": {
          "_data": "Arbitrary length data that should be marked as signed on the behalf of address(this)"
        }
      },
      "swapOwner(address,address,address)": {
        "details": "Allows to swap/replace an owner from the Safe with another address.      This can only be done via a Safe transaction.",
        "params": {
          "newOwner": "New owner address.",
          "oldOwner": "Owner address to be replaced.",
          "prevOwner": "Owner that pointed to the owner to be replaced in the linked list"
        }
      }
    },
    "title": "Gnosis Safe - A multisignature wallet with support for confirmations using signed messages based on ERC191."
  },
  "userdoc": {
    "methods": {
      "isValidSignature(bytes,bytes)": {
        "notice": "Implementation of ISignatureValidator (see `interfaces/ISignatureValidator.sol`)"
      }
    }
  }
}